:020000040800F2
:1000000000400020C1080008050900080509000893
:1000100000000000000000000000000000000000E0
:1000200000000000000000000000000005090008BA
:100030000000000000000000050900080509000894
:100040000509000805090008050900080509000858
:100050000509000805090008050900080509000848
:100060000509000805090008050900080509000838
:100070000509000805090008050900080509000828
:100080000509000805090008050900080509000818
:100090000509000805090008050900080509000808
:1000A000050900080509000805090008A904000859
:1000B0002D050008050900080509000805090008C4
:1000C0005FF808F180B582B000AF0200FB1D1A7026
:1000D000064BFA1D127811001F220A40012191409F
:1000E0000A001A60C046BD4602B080BD00E100E0D3
:1000F00080B582B000AF0200FB1D1A70074AFB1DDD
:100100001B7819001F230B40012199400B00190097
:100110008023D150C046BD4602B080BD00E100E062
:10012000B0B582B000AF02003960FB1D1A70FB1D34
:100130001B787F2B32D92F4CFB1D1B781A000F2305
:100140001340083B99082B4AFB1D1B7818000F230E
:100150000340083B9B0806339B00D31804331B68FD
:10016000FA1D1278100003220240D200FF209040B6
:100170000200D2431A403B689B01FF201840FB1D40
:100180001B781D0003232B40DB00984003001A431B
:100190008B1D9B00E31804331A6027E0164CFB1DEF
:1001A0001B785BB29B081449FA1D127852B2920870
:1001B000C03292005258F91D09780800032101400D
:1001C000C900FF2088400100C94311403A689201EC
:1001D000FF201040FA1D1278150003222A40D20099
:1001E000904002000A43C0339B001A51C046BD46EE
:1001F00002B0B0BD00ED00E000E100E080B582B0EB
:1002000000AF78600D4B64229A637A6813005B003C
:100210009B181B017D21180000F0F4FC03001A005C
:10022000FA239B005343180000F0FCF8034B002214
:100230009A63C046BD4602B080BDC046000400407F
:1002400080B582B000AF78600D4B64225A637A6843
:1002500013005B009B181B017D21180000F0D2FCED
:1002600003001A00FA239B005343180000F0DAF849
:10027000034B00225A63C046BD4602B080BDC04653
:100280000004004080B582B000AF78600D4B64225E
:10029000DA637A6813005B009B181B017D2118004C
:1002A00000F0B0FC03001A00FA239B00534318002F
:1002B00000F0B8F8034B0022DA63C046BD4602B036
:1002C00080BDC0460004004080B582B000AF7860B9
:1002D0000D4B64221A647A6813005B009B181B01A3
:1002E0007D21180000F08EFC03001A00FA239B0009
:1002F0005343180000F096F8034B00221A64C046DE
:10030000BD4602B080BDC0460004004080B500AFCD
:100310005020FFF773FF2820FFF7D6FF2820FFF7B4
:10032000B1FFC046BD4680BD80B500AF7820FFF765
:1003300087FFC046BD4680BD80B500AF1220FFF7E5
:100340005DFF3220FFF79EFFC046BD4680BDC04620
:1003500080B500AF1420FFF751FF3C20FFF7B4FF3A
:10036000C046BD4680BDC04680B500AF1420FFF733
:1003700067FF3C20FFF7A8FFC046BD4680BDC046D2
:1003800080B500AF1E20FFF75BFF2820FFF77AFF44
:10039000C046BD4680BDC04680B500AF3220FFF7E5
:1003A00093FFC046BD4680BD80B500AF3220FFF749
:1003B00069FFC046BD4680BD80B500AF0F20FFF786
:1003C0001DFF0F20FFF73CFF0F20FFF75BFF0F2003
:1003D000FFF77AFFC046BD4680BDC04680B500AF7E
:1003E0000C4B1A68FA239900100000F081FB0300FF
:1003F0001A00094B1A60094A074B1B689BB2138508
:10040000074B074AD26910210A43DA61C046BD464C
:1004100080BDC046000000201400002000100040F5
:100420000010024080B582B000AF0200BB1D1A80F0
:100430001B4A1C4B1B689BB21385194BBA1D1288B3
:10044000DA62174B00225A62154A154B1B8A9BB27F
:1004500001218B439BB21382114A114B1B889BB223
:1004600001210B439BB21380C0460D4B1B8A9BB2EC
:100470001A0001231340F8D0094A094B1B8A9BB28A
:1004800001218B439BB21382054A054B1B889BB20B
:1004900001218B439BB21380C046BD4602B080BD94
:1004A000001000401400002080B582B000AFFB1D9A
:1004B00000221A701B4BDB692022134029D0194BF4
:1004C0009B8C9AB2FB1D1A70FB1D1B78623B152B8F
:1004D00023D89A00144BD3181B689F46FFF716FFCA
:1004E0001CE0FFF721FF19E0FFF726FF16E0FFF7FA
:1004F0002FFF13E0FFF738FF10E0FFF741FF0DE09B
:10050000FFF74AFF0AE0FFF74FFF07E0FFF754FF4E
:1005100004E01B20FFF7ECFD00E0C046C046BD46EE
:1005200002B080BD00380140DC0D000880B582B00B
:1005300000AFFB1D00221A70164BDB69202213400E
:1005400020D0144B9B8C9AB2FB1D1A70114AFB1DD4
:100550001B789BB21385FB1D1B78422B09D04F2BB8
:1005600000D012E00A20FFF749FE1420FFF768FED2
:100570000BE0094A084B9B8A9BB240218B439BB2FC
:10058000938202E01C20FFF7B3FDC046BD4602B0D7
:1005900080BDC046004400400008004880B500AF60
:1005A0009023DB059022D205526A17490A40882120
:1005B00049000A435A62154B144A92698021C901C5
:1005C0000A439A61124B134A9A81114B0D221A6009
:1005D000C0460F4BDB6940221340FAD00C4B0C4A4B
:1005E000126A40210A431A62094B094A1268202103
:1005F0000A431A6000211B20FFF792FD1B20FFF722
:1006000061FDC046BD4680BD0FF0FFFF00100240F7
:10061000003801408813000080B500AF9023DB054F
:100620009022D205526A1202120A882149050A4311
:100630005A620F4B0E4AD269802189020A43DA615D
:100640000C4B0C4A12682D210A431A60094B0A4AC6
:100650009A81C046074BDB6940221340FAD0054B14
:10066000044A126A40210A431A62C046BD4680BD50
:100670000010024000440040E204000080B584B055
:1006800000AF824B814A5269A02109030A435A6193
:100690009023DB059022D20512687D490A407D49EE
:1006A0000A431A60FFF77AFFFFF7B6FF00211B200D
:1006B000FFF736FD1B20FFF705FD00211C20FFF78B
:1006C0002FFD1C20FFF7FEFC00F01EF900F062F980
:1006D000FFF784FE6D4B6D4A5269A02109030A435E
:1006E0005A616D4B6C4A1268AA21C9020A431A600A
:1006F0009023DB059022D205126868490A406849B8
:100700000A431A60614B614AD26902210A43DA61E5
:10071000614B614A1268802109020A431A605E4BEC
:100720005D4A12685F490A401A605B4B5A4A126878
:10073000802189010A431A60574B574A12685A4967
:100740000A401A60544B544A1268802189020A43B5
:100750001A60514B504A126854490A401A604E4B75
:100760004D4A1268802109030A431A604A4B4A4ADB
:1007700012684F490A401A604E494E4B1B8B9BB280
:10078000C022D20113439BB20B834A4B00221A852D
:10079000484B6422DA62474A464B1B8C9BB21021BD
:1007A0000B439BB21384434A424B1B8C9BB22021C8
:1007B0008B439BB213843F4A3E4B1B889BB2012163
:1007C0000B439BB213803B4A3A4B1B8B9BB260217D
:1007D0000B439BB21383374A364B1B8C9BB20121D0
:1007E0000B439BB21384334A324B1B8C9BB20221C6
:1007F0008B439BB213842F4A2E4B9B8B9BB2602161
:100800000B439BB293832B492A4B1B8C9BB28022B8
:10081000520013439BB20B84264A264B1B8C9BB27F
:1008200025490B409BB213842249224B9B8B9BB2E0
:10083000C022D20113439BB28B831E491D4B1B8CDC
:100840009BB28022520113439BB20B84194A194B6D
:100850001B8C9BB219490B409BB213840023FB6095
:10086000144BFA689A63134BFA685A63114BFA688F
:10087000DA63104BFA681A641420FFF7D3FD0B23D8
:10088000FB1800221A7001237B60FEE70010024073
:10089000FFFFC30F000028A000080048FF3CFF0F27
:1008A000008200A0FFBFFFFFFFEFFFFFFFFFFEFF83
:1008B000FFFFFBFF00040040FFFDFFFFFFDFFFFF26
:1008C000002103E00A4B5B584350043109480A4BAE
:1008D00042189A42F6D3094A02E000231360043218
:1008E000074B9A42F9D300F00FF8FFF7C7FE7047A5
:1008F000340E000800000020140000201400002026
:1009000018000020FEE7000080B500AF1B4B1B4A1B
:10091000126801210A431A60184B184A5268184994
:100920000A405A60154B154A126816490A401A6067
:10093000124B124A126814490A401A600F4B0F4AB0
:10094000526812490A405A600C4B0C4AD26A0F2175
:100950008A43DA62094B094A126B0D490A401A634D
:10096000064B064A526B01218A435A63034B00220D
:100970009A6000F079F8C046BD4680BD0010024084
:100980000CB8FFF8FFFFF6FEFFFFFBFFFFFFC0FF05
:10099000ACFEFFFF80B584B000AF0023FB600023F6
:1009A000BB6000237B6000233B602A4B5B680C220A
:1009B0001340FB60FB68042B07D0082B09D0002BE9
:1009C00031D1254B254A1A6031E0234B234A1A6066
:1009D0002DE0204B5A68F0239B031340BB601D4B56
:1009E0005A68C0235B0213407B60BB689B0C0233D8
:1009F000BB607B68002B05D1BB68194A5A43164B74
:100A00001A6014E0134BDB6A0F22134001333B6082
:100A10003968124800F06CF803001A00BB685A43AA
:100A20000D4B1A6003E00C4B0C4A1A60C046094B90
:100A30005B68F02213401B090A4AD35CDBB2FB60FF
:100A4000054B1A68FB68DA40034B1A60C046BD4686
:100A500004B080BD001002400000002000127A00A7
:100A600000093D000400002080B500AF1D4B11229D
:100A70001A601D4B1C4A52685A601B4B1A4A526836
:100A80005A60194B184A526818490A405A60164B66
:100A9000154A5268A02189030A435A60124B124A30
:100AA0001268802149040A431A60C0460E4B1A6836
:100AB00080239B041340F9D00B4B0B4A526803214F
:100AC0008A435A60084B084A526802210A435A6016
:100AD000C046054B5B680C221340082BF9D1C04679
:100AE000BD4680BD0020024000100240FF7FC0FFD5
:100AF000002243088B4274D303098B425FD3030A5D
:100B00008B4244D3030B8B4228D3030C8B420DD36F
:100B1000FF22090212BA030C8B4202D312120902FD
:100B200065D0030B8B4219D300E0090AC30B8B423B
:100B300001D3CB03C01A5241830B8B4201D38B03E9
:100B4000C01A5241430B8B4201D34B03C01A52418E
:100B5000030B8B4201D30B03C01A5241C30A8B42D1
:100B600001D3CB02C01A5241830A8B4201D38B02BC
:100B7000C01A5241430A8B4201D34B02C01A524160
:100B8000030A8B4201D30B02C01A5241CDD2C309D2
:100B90008B4201D3CB01C01A524183098B4201D34E
:100BA0008B01C01A524143098B4201D34B01C01A39
:100BB000524103098B4201D30B01C01A5241C308B1
:100BC0008B4201D3CB00C01A524183088B4201D320
:100BD0008B00C01A524143088B4201D34B00C01A0C
:100BE0005241411A00D20146524110467047FFE778
:100BF00001B5002000F0F0F802BDC0460029F7D092
:100C000076E7704703460B437FD4002243088B42AC
:100C100074D303098B425FD3030A8B4244D3030B83
:100C20008B4228D3030C8B420DD3FF22090212BA48
:100C3000030C8B4202D31212090265D0030B8B42C4
:100C400019D300E0090AC30B8B4201D3CB03C01AAE
:100C50005241830B8B4201D38B03C01A5241430B89
:100C60008B4201D34B03C01A5241030B8B4201D379
:100C70000B03C01A5241C30A8B4201D3CB02C01AE4
:100C80005241830A8B4201D38B02C01A5241430A5C
:100C90008B4201D34B02C01A5241030A8B4201D34B
:100CA0000B02C01A5241CDD2C3098B4201D3CB01F2
:100CB000C01A524183098B4201D38B01C01A5241A1
:100CC00043098B4201D34B01C01A524103098B42A5
:100CD00001D30B01C01A5241C3088B4201D3CB0090
:100CE000C01A524183088B4201D38B00C01A524173
:100CF00043088B4201D34B00C01A5241411A00D223
:100D000001465241104670475DE0CA0F00D049428B
:100D1000031000D34042534000229C4603098B42FB
:100D20002DD3030A8B4212D3FC22890112BA030A83
:100D30008B420CD3890192118B4208D38901921105
:100D40008B4204D389013AD0921100E08909C3098A
:100D50008B4201D3CB01C01A524183098B4201D38C
:100D60008B01C01A524143098B4201D34B01C01A77
:100D7000524103098B4201D30B01C01A5241C308EF
:100D80008B4201D3CB00C01A524183088B4201D35E
:100D90008B00C01A5241D9D243088B4201D34B0079
:100DA000C01A5241411A00D20146634652415B10BB
:100DB000104601D34042002B00D54942704763469C
:100DC0005B1000D3404201B5002000F005F802BDE1
:100DD0000029F8D016E770477047C046FA040008AB
:100DE0000C0500081A0500081A0500081A05000875
:100DF000DC0400081A0500081A05000806050008AA
:100E00001A0500081A050008E20400081A0500087F
:100E10001A0500081A0500081A050008F40400085D
:100E2000E80400081A0500081A050008EE04000886
:040E300000050008B1
:100E3400006CDC020000000000000000010203045A
:040E4400060708098C
:0400000508000000EF
:00000001FF
